{
  "contractName": "MultiSigOperations",
  "abi": [
    {
      "constant": true,
      "inputs": [],
      "name": "operationsCount",
      "outputs": [
        {
          "name": "",
          "type": "uint256"
        }
      ],
      "payable": false,
      "stateMutability": "view",
      "type": "function"
    },
    {
      "constant": true,
      "inputs": [
        {
          "name": "",
          "type": "uint256"
        },
        {
          "name": "",
          "type": "address"
        }
      ],
      "name": "confirmations",
      "outputs": [
        {
          "name": "",
          "type": "bool"
        }
      ],
      "payable": false,
      "stateMutability": "view",
      "type": "function"
    },
    {
      "constant": true,
      "inputs": [
        {
          "name": "",
          "type": "address"
        }
      ],
      "name": "lastOperationBlock",
      "outputs": [
        {
          "name": "",
          "type": "uint256"
        }
      ],
      "payable": false,
      "stateMutability": "view",
      "type": "function"
    },
    {
      "constant": true,
      "inputs": [
        {
          "name": "",
          "type": "uint256"
        }
      ],
      "name": "operations",
      "outputs": [
        {
          "name": "identity",
          "type": "address"
        },
        {
          "name": "executed",
          "type": "bool"
        },
        {
          "name": "confirmationsCount",
          "type": "uint8"
        },
        {
          "name": "executor",
          "type": "address"
        },
        {
          "name": "stringParams",
          "type": "string"
        }
      ],
      "payable": false,
      "stateMutability": "view",
      "type": "function"
    },
    {
      "constant": true,
      "inputs": [],
      "name": "permissionRegistry",
      "outputs": [
        {
          "name": "",
          "type": "address"
        }
      ],
      "payable": false,
      "stateMutability": "view",
      "type": "function"
    },
    {
      "constant": true,
      "inputs": [],
      "name": "deployer",
      "outputs": [
        {
          "name": "",
          "type": "address"
        }
      ],
      "payable": false,
      "stateMutability": "view",
      "type": "function"
    },
    {
      "inputs": [],
      "payable": false,
      "stateMutability": "nonpayable",
      "type": "constructor"
    },
    {
      "anonymous": false,
      "inputs": [
        {
          "indexed": true,
          "name": "identity",
          "type": "address"
        },
        {
          "indexed": false,
          "name": "sender",
          "type": "address"
        },
        {
          "indexed": false,
          "name": "operationId",
          "type": "uint256"
        },
        {
          "indexed": true,
          "name": "executor",
          "type": "address"
        },
        {
          "indexed": false,
          "name": "lastOperationBlock",
          "type": "uint256"
        }
      ],
      "name": "Submission",
      "type": "event"
    },
    {
      "anonymous": false,
      "inputs": [
        {
          "indexed": true,
          "name": "identity",
          "type": "address"
        },
        {
          "indexed": false,
          "name": "sender",
          "type": "address"
        },
        {
          "indexed": false,
          "name": "operationId",
          "type": "uint256"
        },
        {
          "indexed": true,
          "name": "executor",
          "type": "address"
        },
        {
          "indexed": false,
          "name": "lastOperationBlock",
          "type": "uint256"
        }
      ],
      "name": "Confirmation",
      "type": "event"
    },
    {
      "anonymous": false,
      "inputs": [
        {
          "indexed": true,
          "name": "identity",
          "type": "address"
        },
        {
          "indexed": false,
          "name": "sender",
          "type": "address"
        },
        {
          "indexed": false,
          "name": "operationId",
          "type": "uint256"
        },
        {
          "indexed": true,
          "name": "executor",
          "type": "address"
        },
        {
          "indexed": false,
          "name": "lastOperationBlock",
          "type": "uint256"
        }
      ],
      "name": "Revocation",
      "type": "event"
    },
    {
      "anonymous": false,
      "inputs": [
        {
          "indexed": true,
          "name": "identity",
          "type": "address"
        },
        {
          "indexed": false,
          "name": "operationId",
          "type": "uint256"
        },
        {
          "indexed": true,
          "name": "executor",
          "type": "address"
        },
        {
          "indexed": false,
          "name": "lastOperationBlock",
          "type": "uint256"
        }
      ],
      "name": "Execution",
      "type": "event"
    },
    {
      "constant": false,
      "inputs": [
        {
          "name": "registryAddress",
          "type": "address"
        }
      ],
      "name": "setPermissionRegistry",
      "outputs": [],
      "payable": false,
      "stateMutability": "nonpayable",
      "type": "function"
    },
    {
      "constant": false,
      "inputs": [
        {
          "name": "identity",
          "type": "address"
        },
        {
          "name": "executor",
          "type": "address"
        },
        {
          "name": "intParams",
          "type": "uint256[]"
        },
        {
          "name": "stringParams",
          "type": "string"
        },
        {
          "name": "addressParams",
          "type": "address[]"
        },
        {
          "name": "bytesParams",
          "type": "bytes32[]"
        }
      ],
      "name": "submitOperation",
      "outputs": [
        {
          "name": "",
          "type": "uint256"
        }
      ],
      "payable": false,
      "stateMutability": "nonpayable",
      "type": "function"
    },
    {
      "constant": false,
      "inputs": [
        {
          "name": "opId",
          "type": "uint256"
        }
      ],
      "name": "confirmOperation",
      "outputs": [],
      "payable": false,
      "stateMutability": "nonpayable",
      "type": "function"
    },
    {
      "constant": false,
      "inputs": [
        {
          "name": "opId",
          "type": "uint256"
        }
      ],
      "name": "revokeConfirmation",
      "outputs": [],
      "payable": false,
      "stateMutability": "nonpayable",
      "type": "function"
    }
  ],
  "bytecode": "0x608060405234801561001057600080fd5b5033600360006101000a81548173ffffffffffffffffffffffffffffffffffffffff021916908373ffffffffffffffffffffffffffffffffffffffff16021790555061237c806100616000396000f3fe608060405234801561001057600080fd5b506004361061009e5760003560e01c80638bff608e116100665780638bff608e14610464578063b2e9949d146104bc578063b55a5c1c146105e1578063d5f394881461062b578063fc4ce362146106755761009e565b806320ea8d86146100a35780632b4e7c1d146100d15780633411c81c146100ef5780633995ed16146101555780638545547614610199575b600080fd5b6100cf600480360360208110156100b957600080fd5b81019080803590602001909291905050506106a3565b005b6100d9610a95565b6040518082815260200191505060405180910390f35b61013b6004803603604081101561010557600080fd5b8101908080359060200190929190803573ffffffffffffffffffffffffffffffffffffffff169060200190929190505050610a9b565b604051808215151515815260200191505060405180910390f35b6101976004803603602081101561016b57600080fd5b81019080803573ffffffffffffffffffffffffffffffffffffffff169060200190929190505050610aca565b005b61044e600480360360c08110156101af57600080fd5b81019080803573ffffffffffffffffffffffffffffffffffffffff169060200190929190803573ffffffffffffffffffffffffffffffffffffffff1690602001909291908035906020019064010000000081111561020c57600080fd5b82018360208201111561021e57600080fd5b8035906020019184602083028401116401000000008311171561024057600080fd5b919080806020026020016040519081016040528093929190818152602001838360200280828437600081840152601f19601f820116905080830192505050505050509192919290803590602001906401000000008111156102a057600080fd5b8201836020820111156102b257600080fd5b803590602001918460018302840111640100000000831117156102d457600080fd5b91908080601f016020809104026020016040519081016040528093929190818152602001838380828437600081840152601f19601f8201169050808301925050505050505091929192908035906020019064010000000081111561033757600080fd5b82018360208201111561034957600080fd5b8035906020019184602083028401116401000000008311171561036b57600080fd5b919080806020026020016040519081016040528093929190818152602001838360200280828437600081840152601f19601f820116905080830192505050505050509192919290803590602001906401000000008111156103cb57600080fd5b8201836020820111156103dd57600080fd5b803590602001918460208302840111640100000000831117156103ff57600080fd5b919080806020026020016040519081016040528093929190818152602001838360200280828437600081840152601f19601f820116905080830192505050505050509192919290505050610c95565b6040518082815260200191505060405180910390f35b6104a66004803603602081101561047a57600080fd5b81019080803573ffffffffffffffffffffffffffffffffffffffff16906020019092919050505061120a565b6040518082815260200191505060405180910390f35b6104e8600480360360208110156104d257600080fd5b8101908080359060200190929190505050611222565b604051808673ffffffffffffffffffffffffffffffffffffffff1673ffffffffffffffffffffffffffffffffffffffff168152602001851515151581526020018460ff1660ff1681526020018373ffffffffffffffffffffffffffffffffffffffff1673ffffffffffffffffffffffffffffffffffffffff16815260200180602001828103825283818151815260200191508051906020019080838360005b838110156105a2578082015181840152602081019050610587565b50505050905090810190601f1680156105cf5780820380516001836020036101000a031916815260200191505b50965050505050505060405180910390f35b6105e961134a565b604051808273ffffffffffffffffffffffffffffffffffffffff1673ffffffffffffffffffffffffffffffffffffffff16815260200191505060405180910390f35b610633611370565b604051808273ffffffffffffffffffffffffffffffffffffffff1673ffffffffffffffffffffffffffffffffffffffff16815260200191505060405180910390f35b6106a16004803603602081101561068b57600080fd5b8101908080359060200190929190505050611396565b005b60008060008381526020019081526020016000209050600073ffffffffffffffffffffffffffffffffffffffff168160000160009054906101000a900473ffffffffffffffffffffffffffffffffffffffff1673ffffffffffffffffffffffffffffffffffffffff161415610780576040517f08c379a00000000000000000000000000000000000000000000000000000000081526004018080602001828103825260188152602001807f6f7065726174696f6e20646f6573206e6f74206578697374000000000000000081525060200191505060405180910390fd5b600115156001600084815260200190815260200160002060003373ffffffffffffffffffffffffffffffffffffffff1673ffffffffffffffffffffffffffffffffffffffff16815260200190815260200160002060009054906101000a900460ff1615151461083a576040517f08c379a000000000000000000000000000000000000000000000000000000000815260040180806020018281038252602b815260200180612326602b913960400191505060405180910390fd5b60006001600084815260200190815260200160002060003373ffffffffffffffffffffffffffffffffffffffff1673ffffffffffffffffffffffffffffffffffffffff16815260200190815260200160002060006101000a81548160ff02191690831515021790555060018160000160158282829054906101000a900460ff160392506101000a81548160ff021916908360ff1602179055508060010160009054906101000a900473ffffffffffffffffffffffffffffffffffffffff1673ffffffffffffffffffffffffffffffffffffffff168160000160009054906101000a900473ffffffffffffffffffffffffffffffffffffffff1673ffffffffffffffffffffffffffffffffffffffff167f747d2854f26cb258f667941f2c7bfda21eb606dcd0c657010c4bb6cd4c757ce33385600260008760000160009054906101000a900473ffffffffffffffffffffffffffffffffffffffff1673ffffffffffffffffffffffffffffffffffffffff1673ffffffffffffffffffffffffffffffffffffffff16815260200190815260200160002054604051808473ffffffffffffffffffffffffffffffffffffffff1673ffffffffffffffffffffffffffffffffffffffff168152602001838152602001828152602001935050505060405180910390a343600260008360000160009054906101000a900473ffffffffffffffffffffffffffffffffffffffff1673ffffffffffffffffffffffffffffffffffffffff1673ffffffffffffffffffffffffffffffffffffffff16815260200190815260200160002081905550610a9082611667565b505050565b60055481565b60016020528160005260406000206020528060005260406000206000915091509054906101000a900460ff1681565b600360009054906101000a900473ffffffffffffffffffffffffffffffffffffffff1673ffffffffffffffffffffffffffffffffffffffff163373ffffffffffffffffffffffffffffffffffffffff1614610b8d576040517f08c379a000000000000000000000000000000000000000000000000000000000815260040180806020018281038252600d8152602001807f6f6e6c79206465706c6f7965720000000000000000000000000000000000000081525060200191505060405180910390fd5b600073ffffffffffffffffffffffffffffffffffffffff16600460009054906101000a900473ffffffffffffffffffffffffffffffffffffffff1673ffffffffffffffffffffffffffffffffffffffff1614610c51576040517f08c379a00000000000000000000000000000000000000000000000000000000081526004018080602001828103825260148152602001807f726567697374727920616c72656164792073657400000000000000000000000081525060200191505060405180910390fd5b80600460006101000a81548173ffffffffffffffffffffffffffffffffffffffff021916908373ffffffffffffffffffffffffffffffffffffffff16021790555050565b60008686600073ffffffffffffffffffffffffffffffffffffffff168173ffffffffffffffffffffffffffffffffffffffff161415610d3c576040517f08c379a00000000000000000000000000000000000000000000000000000000081526004018080602001828103825260188152602001807f756e6b6e6f776e206578656375746f722061646472657373000000000000000081525060200191505060405180910390fd5b600460009054906101000a900473ffffffffffffffffffffffffffffffffffffffff1673ffffffffffffffffffffffffffffffffffffffff1663ca0576758383336040518463ffffffff1660e01b8152600401808473ffffffffffffffffffffffffffffffffffffffff1673ffffffffffffffffffffffffffffffffffffffff1681526020018373ffffffffffffffffffffffffffffffffffffffff1673ffffffffffffffffffffffffffffffffffffffff1681526020018273ffffffffffffffffffffffffffffffffffffffff1673ffffffffffffffffffffffffffffffffffffffff168152602001935050505060206040518083038186803b158015610e4357600080fd5b505afa158015610e57573d6000803e3d6000fd5b505050506040513d6020811015610e6d57600080fd5b8101908080519060200190929190505050610ef0576040517f08c379a000000000000000000000000000000000000000000000000000000000815260040180806020018281038252601f8152602001807f7065726d697373696f6e20686173206e6f74206265656e206772616e7465640081525060200191505060405180910390fd5b60016005600082825401925050819055506040518061010001604052808a73ffffffffffffffffffffffffffffffffffffffff168152602001600015158152602001600060ff1681526020018973ffffffffffffffffffffffffffffffffffffffff16815260200188815260200187815260200186815260200185815250600080600554815260200190815260200160002060008201518160000160006101000a81548173ffffffffffffffffffffffffffffffffffffffff021916908373ffffffffffffffffffffffffffffffffffffffff16021790555060208201518160000160146101000a81548160ff02191690831515021790555060408201518160000160156101000a81548160ff021916908360ff16021790555060608201518160010160006101000a81548173ffffffffffffffffffffffffffffffffffffffff021916908373ffffffffffffffffffffffffffffffffffffffff160217905550608082015181600201908051906020019061106d9291906120cd565b5060a082015181600301908051906020019061108a92919061211a565b5060c08201518160040190805190602001906110a792919061219a565b5060e08201518160050190805190602001906110c4929190612224565b509050508773ffffffffffffffffffffffffffffffffffffffff168973ffffffffffffffffffffffffffffffffffffffff167f2ac7f8a454cf5a2da82cb4837902615891d68f5fe683e5f41b300478df5a546e33600554600260008f73ffffffffffffffffffffffffffffffffffffffff1673ffffffffffffffffffffffffffffffffffffffff16815260200190815260200160002054604051808473ffffffffffffffffffffffffffffffffffffffff1673ffffffffffffffffffffffffffffffffffffffff168152602001838152602001828152602001935050505060405180910390a343600260008b73ffffffffffffffffffffffffffffffffffffffff1673ffffffffffffffffffffffffffffffffffffffff168152602001908152602001600020819055506111f9600554611cdc565b600554925050509695505050505050565b60026020528060005260406000206000915090505481565b60006020528060005260406000206000915090508060000160009054906101000a900473ffffffffffffffffffffffffffffffffffffffff16908060000160149054906101000a900460ff16908060000160159054906101000a900460ff16908060010160009054906101000a900473ffffffffffffffffffffffffffffffffffffffff1690806003018054600181600116156101000203166002900480601f0160208091040260200160405190810160405280929190818152602001828054600181600116156101000203166002900480156113405780601f1061131557610100808354040283529160200191611340565b820191906000526020600020905b81548152906001019060200180831161132357829003601f168201915b5050505050905085565b600460009054906101000a900473ffffffffffffffffffffffffffffffffffffffff1681565b600360009054906101000a900473ffffffffffffffffffffffffffffffffffffffff1681565b60008082815260200190815260200160002060000160009054906101000a900473ffffffffffffffffffffffffffffffffffffffff1660008083815260200190815260200160002060010160009054906101000a900473ffffffffffffffffffffffffffffffffffffffff16600073ffffffffffffffffffffffffffffffffffffffff168173ffffffffffffffffffffffffffffffffffffffff1614156114a5576040517f08c379a00000000000000000000000000000000000000000000000000000000081526004018080602001828103825260188152602001807f756e6b6e6f776e206578656375746f722061646472657373000000000000000081525060200191505060405180910390fd5b600460009054906101000a900473ffffffffffffffffffffffffffffffffffffffff1673ffffffffffffffffffffffffffffffffffffffff1663ca0576758383336040518463ffffffff1660e01b8152600401808473ffffffffffffffffffffffffffffffffffffffff1673ffffffffffffffffffffffffffffffffffffffff1681526020018373ffffffffffffffffffffffffffffffffffffffff1673ffffffffffffffffffffffffffffffffffffffff1681526020018273ffffffffffffffffffffffffffffffffffffffff1673ffffffffffffffffffffffffffffffffffffffff168152602001935050505060206040518083038186803b1580156115ac57600080fd5b505afa1580156115c0573d6000803e3d6000fd5b505050506040513d60208110156115d657600080fd5b8101908080519060200190929190505050611659576040517f08c379a000000000000000000000000000000000000000000000000000000000815260040180806020018281038252601f8152602001807f7065726d697373696f6e20686173206e6f74206265656e206772616e7465640081525060200191505060405180910390fd5b61166283611cdc565b505050565b6000806000808481526020019081526020016000209050600015158160000160149054906101000a900460ff16151514611709576040517f08c379a000000000000000000000000000000000000000000000000000000000815260040180806020018281038252601a8152602001807f4f7065726174696f6e20616c726561647920657865637574656400000000000081525060200191505060405180910390fd5b600460009054906101000a900473ffffffffffffffffffffffffffffffffffffffff1673ffffffffffffffffffffffffffffffffffffffff1663e206d6318260000160009054906101000a900473ffffffffffffffffffffffffffffffffffffffff168360010160009054906101000a900473ffffffffffffffffffffffffffffffffffffffff168460000160159054906101000a900460ff166040518463ffffffff1660e01b8152600401808473ffffffffffffffffffffffffffffffffffffffff1673ffffffffffffffffffffffffffffffffffffffff1681526020018373ffffffffffffffffffffffffffffffffffffffff1673ffffffffffffffffffffffffffffffffffffffff1681526020018260ff1660ff168152602001935050505060206040518083038186803b15801561184357600080fd5b505afa158015611857573d6000803e3d6000fd5b505050506040513d602081101561186d57600080fd5b810190808051906020019092919050505015611cd15760018160000160146101000a81548160ff02191690831515021790555060008160010160009054906101000a900473ffffffffffffffffffffffffffffffffffffffff1690508160010160009054906101000a900473ffffffffffffffffffffffffffffffffffffffff1673ffffffffffffffffffffffffffffffffffffffff168260000160009054906101000a900473ffffffffffffffffffffffffffffffffffffffff1673ffffffffffffffffffffffffffffffffffffffff167fcf741dc81a7cedc9db83d928e5fccaf376bdaec5880c65b16e625aa0b15c48a786600260008760000160009054906101000a900473ffffffffffffffffffffffffffffffffffffffff1673ffffffffffffffffffffffffffffffffffffffff1673ffffffffffffffffffffffffffffffffffffffff16815260200190815260200160002054604051808381526020018281526020019250505060405180910390a343600260008460000160009054906101000a900473ffffffffffffffffffffffffffffffffffffffff1673ffffffffffffffffffffffffffffffffffffffff1673ffffffffffffffffffffffffffffffffffffffff168152602001908152602001600020819055508073ffffffffffffffffffffffffffffffffffffffff1663f1c419588360000160009054906101000a900473ffffffffffffffffffffffffffffffffffffffff16846002018560030186600401876005016040518663ffffffff1660e01b8152600401808673ffffffffffffffffffffffffffffffffffffffff1673ffffffffffffffffffffffffffffffffffffffff168152602001806020018060200180602001806020018581038552898181548152602001915080548015611b2c57602002820191906000526020600020905b815481526020019060010190808311611b18575b5050858103845288818154600181600116156101000203166002900481526020019150805460018160011615610100020316600290048015611baf5780601f10611b8457610100808354040283529160200191611baf565b820191906000526020600020905b815481529060010190602001808311611b9257829003601f168201915b50508581038352878181548152602001915080548015611c2457602002820191906000526020600020905b8160009054906101000a900473ffffffffffffffffffffffffffffffffffffffff1673ffffffffffffffffffffffffffffffffffffffff1681526020019060010190808311611bda575b50508581038252868181548152602001915080548015611c6357602002820191906000526020600020905b815481526020019060010190808311611c4f575b50509950505050505050505050602060405180830381600087803b158015611c8a57600080fd5b505af1158015611c9e573d6000803e3d6000fd5b505050506040513d6020811015611cb457600080fd5b810190808051906020019092919050505050600192505050611cd7565b60009150505b919050565b60008060008381526020019081526020016000209050600073ffffffffffffffffffffffffffffffffffffffff168160000160009054906101000a900473ffffffffffffffffffffffffffffffffffffffff1673ffffffffffffffffffffffffffffffffffffffff161415611db9576040517f08c379a00000000000000000000000000000000000000000000000000000000081526004018080602001828103825260188152602001807f6f7065726174696f6e20646f6573206e6f74206578697374000000000000000081525060200191505060405180910390fd5b600015156001600084815260200190815260200160002060003373ffffffffffffffffffffffffffffffffffffffff1673ffffffffffffffffffffffffffffffffffffffff16815260200190815260200160002060009054906101000a900460ff16151514611e73576040517f08c379a00000000000000000000000000000000000000000000000000000000081526004018080602001828103825260278152602001806122ff6027913960400191505060405180910390fd5b600180600084815260200190815260200160002060003373ffffffffffffffffffffffffffffffffffffffff1673ffffffffffffffffffffffffffffffffffffffff16815260200190815260200160002060006101000a81548160ff02191690831515021790555060018160000160158282829054906101000a900460ff160192506101000a81548160ff021916908360ff1602179055508060010160009054906101000a900473ffffffffffffffffffffffffffffffffffffffff1673ffffffffffffffffffffffffffffffffffffffff168160000160009054906101000a900473ffffffffffffffffffffffffffffffffffffffff1673ffffffffffffffffffffffffffffffffffffffff167f817694a005a7dd137f16ac53499d2f19c6ec10cbd95cc9b207797a8c03a6e18a3385600260008760000160009054906101000a900473ffffffffffffffffffffffffffffffffffffffff1673ffffffffffffffffffffffffffffffffffffffff1673ffffffffffffffffffffffffffffffffffffffff16815260200190815260200160002054604051808473ffffffffffffffffffffffffffffffffffffffff1673ffffffffffffffffffffffffffffffffffffffff168152602001838152602001828152602001935050505060405180910390a343600260008360000160009054906101000a900473ffffffffffffffffffffffffffffffffffffffff1673ffffffffffffffffffffffffffffffffffffffff1673ffffffffffffffffffffffffffffffffffffffff168152602001908152602001600020819055506120c882611667565b505050565b828054828255906000526020600020908101928215612109579160200282015b828111156121085782518255916020019190600101906120ed565b5b5090506121169190612271565b5090565b828054600181600116156101000203166002900490600052602060002090601f016020900481019282601f1061215b57805160ff1916838001178555612189565b82800160010185558215612189579182015b8281111561218857825182559160200191906001019061216d565b5b5090506121969190612271565b5090565b828054828255906000526020600020908101928215612213579160200282015b828111156122125782518260006101000a81548173ffffffffffffffffffffffffffffffffffffffff021916908373ffffffffffffffffffffffffffffffffffffffff160217905550916020019190600101906121ba565b5b5090506122209190612296565b5090565b828054828255906000526020600020908101928215612260579160200282015b8281111561225f578251825591602001919060010190612244565b5b50905061226d91906122d9565b5090565b61229391905b8082111561228f576000816000905550600101612277565b5090565b90565b6122d691905b808211156122d257600081816101000a81549073ffffffffffffffffffffffffffffffffffffffff02191690555060010161229c565b5090565b90565b6122fb91905b808211156122f75760008160009055506001016122df565b5090565b9056fe73656e64657220616c726561647920636f6e6669726d65642074686973206f7065726174696f6e73656e64657220686173206e6f7420636f6e6669726d65642074686973206f7065726174696f6e20796574a165627a7a7230582073158f907fc07d19cb00b639fb337287ae1a0b2c8fea6f20c2a6e0c72ccb86130029",
  "source": "pragma solidity ^0.5.1;\n\nimport './OperationExecutor.sol';\nimport './PermissionRegistry.sol';\n\n/// @title MultiSigOperations\n/// @author Andrea Taglia\ncontract MultiSigOperations{\n\n  /*\n     *  Events\n     */\n    event Submission(address indexed identity, address sender, uint operationId, address indexed executor, uint lastOperationBlock);\n    event Confirmation(address indexed identity, address sender, uint operationId, address indexed executor, uint lastOperationBlock);\n    event Revocation(address indexed identity, address sender, uint operationId, address indexed executor, uint lastOperationBlock);\n    event Execution(address indexed identity, uint operationId, address indexed executor, uint lastOperationBlock);\n\n\n  mapping(uint => Operation) public operations;\n  mapping(uint => mapping(address => bool)) public confirmations;\n\n  mapping(address => uint) public lastOperationBlock;\n\n  address public deployer;\n  PermissionRegistry public permissionRegistry;\n\n  uint256 public operationsCount;\n\n  modifier needsPermission(address identity, address executorAddress){\n    require(executorAddress != address(0x0), \"unknown executor address\");\n    require(permissionRegistry.actorHasPermission(identity, executorAddress, msg.sender), \"permission has not been granted\");\n    _;\n  }\n\n  struct Operation {\n    address identity;\n    bool executed;\n    uint8 confirmationsCount;\n    address executor;\n    uint256[] intParams;\n    string stringParams;\n    address[] addressParams;\n    bytes32[] bytesParams;\n  }\n\n  constructor() public {\n    deployer = msg.sender;\n  }\n\n  //PermissionRegistry set up\n\n  /// @param registryAddress (address)\n  function setPermissionRegistry(address registryAddress) public {\n    require(msg.sender == deployer, \"only deployer\");\n    require(address(permissionRegistry) == address(0x0), \"registry already set\");\n    permissionRegistry = PermissionRegistry(registryAddress);\n  }\n\n\n  /// @param identity (address)\n  /// @param executor (address)\n  /// @param intParams ()\n  /// @param stringParams (string)\n  /// @param addressParams ()\n  /// @param bytesParams ()\n  /// @return  (uint256)\n  function submitOperation(address identity, address executor, uint256[] memory intParams, string memory stringParams, address[] memory addressParams, bytes32[] memory bytesParams) public needsPermission(identity, executor) returns (uint256) {\n    operationsCount += 1;\n    operations[operationsCount] = Operation({\n      executed: false,\n      identity: identity,\n      confirmationsCount: 0,\n      executor: executor,\n      intParams: intParams,\n      stringParams: stringParams,\n      addressParams: addressParams,\n      bytesParams: bytesParams\n    });\n    emit Submission(identity, msg.sender, operationsCount, executor, lastOperationBlock[identity]);\n    lastOperationBlock[identity] = block.number;\n    confirm(operationsCount);\n    return operationsCount;\n  }\n\n\n  /// @param opId (uint256)\n  function confirmOperation(uint256 opId) public needsPermission(operations[opId].identity, operations[opId].executor) {\n    confirm(opId);\n  }\n\n  function confirm(uint256 opId) internal {\n    Operation storage op = operations[opId];\n    require(op.identity != address(0), \"operation does not exist\");\n    require(confirmations[opId][msg.sender] == false, \"sender already confirmed this operation\");\n    confirmations[opId][msg.sender] = true;\n    op.confirmationsCount += 1;\n    emit Confirmation(op.identity, msg.sender, opId, op.executor, lastOperationBlock[op.identity]);\n    lastOperationBlock[op.identity] = block.number;\n    executeOperation(opId);\n  }\n\n\n  /// @param opId (uint256)\n  function revokeConfirmation(uint256 opId) public {\n    Operation storage op = operations[opId];\n    require(op.identity != address(0), \"operation does not exist\");\n    require(confirmations[opId][msg.sender] == true, \"sender has not confirmed this operation yet\");\n    confirmations[opId][msg.sender] = false;\n    op.confirmationsCount -= 1;\n    emit Revocation(op.identity, msg.sender, opId, op.executor, lastOperationBlock[op.identity]);\n    lastOperationBlock[op.identity] = block.number;\n    executeOperation(opId);\n  }\n\n\n  /// @param opId (uint256)\n  /// @return  (bool)\n  function executeOperation(uint256 opId) internal returns (bool) {\n    Operation storage op = operations[opId];\n    require(op.executed == false, \"Operation already executed\");\n    if (permissionRegistry.quorumSatisfied(op.identity, op.executor, op.confirmationsCount)) {\n      op.executed = true;\n      OperationExecutor executor = OperationExecutor(op.executor);\n      emit Execution(op.identity, opId, op.executor, lastOperationBlock[op.identity]);\n      lastOperationBlock[op.identity] = block.number;\n      executor.execute(op.identity, op.intParams, op.stringParams, op.addressParams, op.bytesParams);\n      return true;\n    }\n    return false;\n  }\n\n}\n\n\n",
  "sourcePath": "/mnt/c/dev/ssi-poc/ssi-smart-contracts/contracts/MultiSigOperations.sol",
  "compiler": {
    "name": "solc",
    "version": "0.5.8+commit.23d335f2.Emscripten.clang"
  },
  "schemaVersion": "3.0.11",
  "updatedAt": "2019-07-22T21:55:03.109Z",
  "devdoc": {
    "author": "Andrea Taglia",
    "methods": {
      "confirmOperation(uint256)": {
        "params": {
          "opId": "(uint256)"
        }
      },
      "revokeConfirmation(uint256)": {
        "params": {
          "opId": "(uint256)"
        }
      },
      "setPermissionRegistry(address)": {
        "params": {
          "registryAddress": "(address)"
        }
      },
      "submitOperation(address,address,uint256[],string,address[],bytes32[])": {
        "params": {
          "addressParams": "()",
          "bytesParams": "()",
          "executor": "(address)",
          "identity": "(address)",
          "intParams": "()",
          "stringParams": "(string)"
        },
        "return": "(uint256)"
      }
    },
    "title": "MultiSigOperations"
  },
  "userdoc": {
    "methods": {}
  }
}