{
  "contractName": "PistisDIDRegistry",
  "abi": [
    {
      "constant": true,
      "inputs": [
        {
          "name": "",
          "type": "address"
        },
        {
          "name": "",
          "type": "address"
        }
      ],
      "name": "minQuorum",
      "outputs": [
        {
          "name": "",
          "type": "uint8"
        }
      ],
      "payable": false,
      "stateMutability": "view",
      "type": "function"
    },
    {
      "constant": true,
      "inputs": [
        {
          "name": "",
          "type": "address"
        }
      ],
      "name": "blockChanged",
      "outputs": [
        {
          "name": "",
          "type": "uint256"
        }
      ],
      "payable": false,
      "stateMutability": "view",
      "type": "function"
    },
    {
      "constant": true,
      "inputs": [
        {
          "name": "",
          "type": "address"
        }
      ],
      "name": "primaryAddressChanged",
      "outputs": [
        {
          "name": "",
          "type": "bool"
        }
      ],
      "payable": false,
      "stateMutability": "view",
      "type": "function"
    },
    {
      "constant": true,
      "inputs": [],
      "name": "multiSigContract",
      "outputs": [
        {
          "name": "",
          "type": "address"
        }
      ],
      "payable": false,
      "stateMutability": "view",
      "type": "function"
    },
    {
      "constant": true,
      "inputs": [],
      "name": "DEFAULT_REQUIRED_QUORUM",
      "outputs": [
        {
          "name": "",
          "type": "uint8"
        }
      ],
      "payable": false,
      "stateMutability": "view",
      "type": "function"
    },
    {
      "constant": true,
      "inputs": [
        {
          "name": "",
          "type": "address"
        },
        {
          "name": "",
          "type": "address"
        },
        {
          "name": "",
          "type": "address"
        }
      ],
      "name": "delegates",
      "outputs": [
        {
          "name": "",
          "type": "bool"
        }
      ],
      "payable": false,
      "stateMutability": "view",
      "type": "function"
    },
    {
      "inputs": [
        {
          "name": "default_required_quorum",
          "type": "uint8"
        },
        {
          "name": "multiSigContract",
          "type": "address"
        }
      ],
      "payable": false,
      "stateMutability": "nonpayable",
      "type": "constructor"
    },
    {
      "anonymous": false,
      "inputs": [
        {
          "indexed": true,
          "name": "identity",
          "type": "address"
        },
        {
          "indexed": false,
          "name": "executor",
          "type": "address"
        },
        {
          "indexed": false,
          "name": "delegate",
          "type": "address"
        },
        {
          "indexed": false,
          "name": "added",
          "type": "bool"
        },
        {
          "indexed": false,
          "name": "previousChange",
          "type": "uint256"
        }
      ],
      "name": "DIDDelegateChanged",
      "type": "event"
    },
    {
      "constant": true,
      "inputs": [
        {
          "name": "identity",
          "type": "address"
        },
        {
          "name": "executor",
          "type": "address"
        },
        {
          "name": "actor",
          "type": "address"
        }
      ],
      "name": "actorHasPermission",
      "outputs": [
        {
          "name": "",
          "type": "bool"
        }
      ],
      "payable": false,
      "stateMutability": "view",
      "type": "function"
    },
    {
      "constant": true,
      "inputs": [
        {
          "name": "identity",
          "type": "address"
        },
        {
          "name": "executor",
          "type": "address"
        },
        {
          "name": "confirmationCount",
          "type": "uint8"
        }
      ],
      "name": "quorumSatisfied",
      "outputs": [
        {
          "name": "",
          "type": "bool"
        }
      ],
      "payable": false,
      "stateMutability": "view",
      "type": "function"
    },
    {
      "constant": false,
      "inputs": [
        {
          "name": "identity",
          "type": "address"
        },
        {
          "name": "intParams",
          "type": "uint256[]"
        },
        {
          "name": "stringParams",
          "type": "string"
        },
        {
          "name": "addressParams",
          "type": "address[]"
        },
        {
          "name": "bytesParams",
          "type": "bytes32[]"
        }
      ],
      "name": "execute",
      "outputs": [
        {
          "name": "",
          "type": "bool"
        }
      ],
      "payable": false,
      "stateMutability": "nonpayable",
      "type": "function"
    }
  ],
  "bytecode": "0x608060405234801561001057600080fd5b50604051604080610ff98339810180604052604081101561003057600080fd5b8101908080519060200190929190805190602001909291905050508080806000806101000a81548173ffffffffffffffffffffffffffffffffffffffff021916908373ffffffffffffffffffffffffffffffffffffffff160217905550505081600560006101000a81548160ff021916908360ff1602179055505050610f3e806100bb6000396000f3fe608060405234801561001057600080fd5b50600436106100935760003560e01c806393307f5b1161006657806393307f5b14610214578063b0f4173714610238578063ca057675146102d4578063e206d63114610370578063f1c41958146103f957610093565b80631e8bad0d1461009857806323de40ea1461011657806366805aa11461016e5780638faaefc8146101ca575b600080fd5b6100fa600480360360408110156100ae57600080fd5b81019080803573ffffffffffffffffffffffffffffffffffffffff169060200190929190803573ffffffffffffffffffffffffffffffffffffffff1690602001909291905050506106a8565b604051808260ff1660ff16815260200191505060405180910390f35b6101586004803603602081101561012c57600080fd5b81019080803573ffffffffffffffffffffffffffffffffffffffff1690602001909291905050506106d7565b6040518082815260200191505060405180910390f35b6101b06004803603602081101561018457600080fd5b81019080803573ffffffffffffffffffffffffffffffffffffffff1690602001909291905050506106ef565b604051808215151515815260200191505060405180910390f35b6101d261070f565b604051808273ffffffffffffffffffffffffffffffffffffffff1673ffffffffffffffffffffffffffffffffffffffff16815260200191505060405180910390f35b61021c610734565b604051808260ff1660ff16815260200191505060405180910390f35b6102ba6004803603606081101561024e57600080fd5b81019080803573ffffffffffffffffffffffffffffffffffffffff169060200190929190803573ffffffffffffffffffffffffffffffffffffffff169060200190929190803573ffffffffffffffffffffffffffffffffffffffff169060200190929190505050610747565b604051808215151515815260200191505060405180910390f35b610356600480360360608110156102ea57600080fd5b81019080803573ffffffffffffffffffffffffffffffffffffffff169060200190929190803573ffffffffffffffffffffffffffffffffffffffff169060200190929190803573ffffffffffffffffffffffffffffffffffffffff169060200190929190505050610783565b604051808215151515815260200191505060405180910390f35b6103df6004803603606081101561038657600080fd5b81019080803573ffffffffffffffffffffffffffffffffffffffff169060200190929190803573ffffffffffffffffffffffffffffffffffffffff169060200190929190803560ff1690602001909291905050506108e9565b604051808215151515815260200191505060405180910390f35b61068e600480360360a081101561040f57600080fd5b81019080803573ffffffffffffffffffffffffffffffffffffffff1690602001909291908035906020019064010000000081111561044c57600080fd5b82018360208201111561045e57600080fd5b8035906020019184602083028401116401000000008311171561048057600080fd5b919080806020026020016040519081016040528093929190818152602001838360200280828437600081840152601f19601f820116905080830192505050505050509192919290803590602001906401000000008111156104e057600080fd5b8201836020820111156104f257600080fd5b8035906020019184600183028401116401000000008311171561051457600080fd5b91908080601f016020809104026020016040519081016040528093929190818152602001838380828437600081840152601f19601f8201169050808301925050505050505091929192908035906020019064010000000081111561057757600080fd5b82018360208201111561058957600080fd5b803590602001918460208302840111640100000000831117156105ab57600080fd5b919080806020026020016040519081016040528093929190818152602001838360200280828437600081840152601f19601f8201169050808301925050505050505091929192908035906020019064010000000081111561060b57600080fd5b82018360208201111561061d57600080fd5b8035906020019184602083028401116401000000008311171561063f57600080fd5b919080806020026020016040519081016040528093929190818152602001838360200280828437600081840152601f19601f82011690508083019250505050505050919291929050505061099d565b604051808215151515815260200191505060405180910390f35b60036020528160005260406000206020528060005260406000206000915091509054906101000a900460ff1681565b60046020528060005260406000206000915090505481565b60026020528060005260406000206000915054906101000a900460ff1681565b6000809054906101000a900473ffffffffffffffffffffffffffffffffffffffff1681565b600560009054906101000a900460ff1681565b6001602052826000526040600020602052816000526040600020602052806000526040600020600092509250509054906101000a900460ff1681565b60008173ffffffffffffffffffffffffffffffffffffffff168473ffffffffffffffffffffffffffffffffffffffff1614801561080a5750600260008573ffffffffffffffffffffffffffffffffffffffff1673ffffffffffffffffffffffffffffffffffffffff16815260200190815260200160002060009054906101000a900460ff16155b1561081857600190506108e2565b600160008573ffffffffffffffffffffffffffffffffffffffff1673ffffffffffffffffffffffffffffffffffffffff16815260200190815260200160002060008473ffffffffffffffffffffffffffffffffffffffff1673ffffffffffffffffffffffffffffffffffffffff16815260200190815260200160002060008373ffffffffffffffffffffffffffffffffffffffff1673ffffffffffffffffffffffffffffffffffffffff16815260200190815260200160002060009054906101000a900460ff1690505b9392505050565b600080600360008673ffffffffffffffffffffffffffffffffffffffff1673ffffffffffffffffffffffffffffffffffffffff16815260200190815260200160002060008573ffffffffffffffffffffffffffffffffffffffff1673ffffffffffffffffffffffffffffffffffffffff16815260200190815260200160002060009054906101000a900460ff16905060008160ff16141561098957600190505b8060ff168360ff1610159150509392505050565b60006109ac8686868686610e3e565b506000836000815181106109bc57fe5b602002602001015190506000846001815181106109d557fe5b6020026020010151905060006001886000815181106109f057fe5b602002602001015114905080600160008b73ffffffffffffffffffffffffffffffffffffffff1673ffffffffffffffffffffffffffffffffffffffff16815260200190815260200160002060008473ffffffffffffffffffffffffffffffffffffffff1673ffffffffffffffffffffffffffffffffffffffff16815260200190815260200160002060008573ffffffffffffffffffffffffffffffffffffffff1673ffffffffffffffffffffffffffffffffffffffff16815260200190815260200160002060006101000a81548160ff0219169083151502179055508873ffffffffffffffffffffffffffffffffffffffff167f9b3942fd881ebc8efce6063a63a1530336442d5b211d31ba4146c798617ebb80838584600460008f73ffffffffffffffffffffffffffffffffffffffff1673ffffffffffffffffffffffffffffffffffffffff16815260200190815260200160002054604051808573ffffffffffffffffffffffffffffffffffffffff1673ffffffffffffffffffffffffffffffffffffffff1681526020018473ffffffffffffffffffffffffffffffffffffffff1673ffffffffffffffffffffffffffffffffffffffff1681526020018315151515815260200182815260200194505050505060405180910390a243600460008b73ffffffffffffffffffffffffffffffffffffffff1673ffffffffffffffffffffffffffffffffffffffff168152602001908152602001600020819055506000600360008b73ffffffffffffffffffffffffffffffffffffffff1673ffffffffffffffffffffffffffffffffffffffff16815260200190815260200160002060008473ffffffffffffffffffffffffffffffffffffffff1673ffffffffffffffffffffffffffffffffffffffff16815260200190815260200160002060009054906101000a900460ff1660ff161415610d4b57600560009054906101000a900460ff16600360008b73ffffffffffffffffffffffffffffffffffffffff1673ffffffffffffffffffffffffffffffffffffffff16815260200190815260200160002060008473ffffffffffffffffffffffffffffffffffffffff1673ffffffffffffffffffffffffffffffffffffffff16815260200190815260200160002060006101000a81548160ff021916908360ff1602179055505b600260008a73ffffffffffffffffffffffffffffffffffffffff1673ffffffffffffffffffffffffffffffffffffffff16815260200190815260200160002060009054906101000a900460ff16158015610dd057508273ffffffffffffffffffffffffffffffffffffffff168973ffffffffffffffffffffffffffffffffffffffff16145b15610e2e576001600260008b73ffffffffffffffffffffffffffffffffffffffff1673ffffffffffffffffffffffffffffffffffffffff16815260200190815260200160002060006101000a81548160ff0219169083151502179055505b6001935050505095945050505050565b60008060009054906101000a900473ffffffffffffffffffffffffffffffffffffffff1673ffffffffffffffffffffffffffffffffffffffff163373ffffffffffffffffffffffffffffffffffffffff1614610ee5576040517f08c379a0000000000000000000000000000000000000000000000000000000008152600401808060200182810382526024815260200180610eef6024913960400191505060405180910390fd5b9594505050505056fe6f6e6c79206d756c7469736967636f6e74726163742063616e2065786563757465206974a165627a7a7230582060e3d9316761240f8a87d203953c56e2a7a891e2ede49998af56aa4c047c12200029",
  "source": "pragma solidity ^0.5.0;\r\n\r\nimport './PermissionRegistry.sol';\r\n\r\n/// @title DID Registry - Enforcing multi sig operations on W3C based DID standard registry\r\n/// @author Andrea Taglia - <drew.taglia@gmail.com>\r\ncontract PistisDIDRegistry is PermissionRegistry {\r\n\r\n    /**\r\n    Events\r\n    */\r\n    event DIDDelegateChanged(\r\n        address indexed identity,\r\n        address executor,\r\n        address delegate,\r\n        bool added,\r\n        uint previousChange\r\n    );\r\n\r\n    /**\r\n    Storage\r\n    */\r\n\r\n    /// @notice for each identity maps parmissions (i.e. executors address) to those addresses who have it granted.\r\n    mapping(address => mapping(address => mapping(address => bool))) public delegates;\r\n    mapping(address => bool) public primaryAddressChanged;\r\n    mapping(address => mapping(address => uint8)) public minQuorum;\r\n    mapping(address => uint) public blockChanged;\r\n    uint8 public DEFAULT_REQUIRED_QUORUM;\r\n\r\n    /**\r\n    Constructor\r\n    */\r\n    constructor(uint8 default_required_quorum, address multiSigContract) PermissionRegistry(multiSigContract) public {\r\n        DEFAULT_REQUIRED_QUORUM = default_required_quorum;\r\n    }\r\n\r\n    /**\r\n    Public Functions\r\n    */\r\n\r\n    /// @param identity (address)\r\n    /// @param executor (address)\r\n    /// @param confirmationCount (uint8)\r\n    /// @return  (bool)\r\n    function actorHasPermission(address identity, address executor, address actor) public view returns(bool) {\r\n        if(identity == actor && !primaryAddressChanged[identity]){\r\n            return true;\r\n        }\r\n        return delegates[identity][executor][actor];\r\n    }\r\n\r\n    /// @param identity (address)\r\n    /// @param executor (address)\r\n    /// @param confirmationCount (uint8)\r\n    /// @return  (bool)\r\n    function quorumSatisfied(address identity, address executor, uint8 confirmationCount) public view returns(bool){\r\n        uint8 quorum = minQuorum[identity][executor];\r\n        //meaning it is a primary address and has never changed\r\n        if (quorum == 0) {\r\n            quorum = 1;\r\n        }\r\n        return confirmationCount >= quorum;\r\n    }\r\n\r\n    //addressParams[0] = delegate\r\n    //addressParams[1] = permission\r\n    //intParams[0] = added (if == 1)\r\n\r\n    /// @dev execute function\r\n    /// @param identity (address)\r\n    /// @param executor (address)\r\n    /// @param confirmationCount (uint8)\r\n    /// @return  (bool)\r\n    function execute(address identity, uint256[] memory intParams, string memory stringParams, address[] memory addressParams, bytes32[] memory bytesParams) public returns (bool) {\r\n        //should require params are set\r\n        super.execute(identity, intParams, stringParams, addressParams, bytesParams);\r\n        address delegate = addressParams[0];\r\n        address permission = addressParams[1];\r\n        //add (1) or remove (2) a delegate\r\n        bool added = intParams[0] == 1;\r\n        delegates[identity][permission][delegate] = added;\r\n        emit DIDDelegateChanged(identity, permission, delegate, added, blockChanged[identity]);\r\n        blockChanged[identity] = block.number;\r\n        if (minQuorum[identity][permission] == 0) {\r\n            minQuorum[identity][permission] = DEFAULT_REQUIRED_QUORUM;\r\n        }\r\n        //if the primary address is given permission different than this executor then no more delegates can be added to that identity\r\n        if(!primaryAddressChanged[identity] && identity == delegate){\r\n            primaryAddressChanged[identity] = true;\r\n        }\r\n        return true;\r\n    }\r\n}\r\n\r\n\r\n",
  "sourcePath": "/mnt/c/dev/ssi-poc/ssi-smart-contracts/contracts/PistisDIDRegistry.sol",
  "compiler": {
    "name": "solc",
    "version": "0.5.8+commit.23d335f2.Emscripten.clang"
  },
  "schemaVersion": "3.0.11",
  "updatedAt": "2019-07-22T21:55:03.120Z",
  "devdoc": {
    "author": "Andrea Taglia - <drew.taglia@gmail.com>",
    "methods": {
      "actorHasPermission(address,address,address)": {
        "return": "(bool)"
      },
      "execute(address,uint256[],string,address[],bytes32[])": {
        "return": "(bool)"
      },
      "quorumSatisfied(address,address,uint8)": {
        "return": "(bool)"
      }
    }
  },
  "userdoc": {
    "methods": {
      "constructor": "Constructor\r"
    }
  }
}