{
  "contractName": "StatusRegistry",
  "abi": [
    {
      "constant": true,
      "inputs": [
        {
          "name": "",
          "type": "address"
        },
        {
          "name": "",
          "type": "uint256"
        }
      ],
      "name": "credentialList",
      "outputs": [
        {
          "name": "credentialStatus",
          "type": "uint8"
        },
        {
          "name": "statusReason",
          "type": "bytes32"
        },
        {
          "name": "time",
          "type": "uint256"
        }
      ],
      "payable": false,
      "stateMutability": "view",
      "type": "function"
    },
    {
      "inputs": [
        {
          "name": "_requiredCount",
          "type": "uint256"
        }
      ],
      "payable": false,
      "stateMutability": "nonpayable",
      "type": "constructor"
    },
    {
      "constant": false,
      "inputs": [
        {
          "name": "_issuer",
          "type": "address"
        },
        {
          "name": "_credentialId",
          "type": "uint256"
        },
        {
          "name": "_credentialStatus",
          "type": "uint8"
        },
        {
          "name": "_statusReason",
          "type": "bytes32"
        },
        {
          "name": "_opId",
          "type": "uint256"
        }
      ],
      "name": "setCredentialStatus",
      "outputs": [
        {
          "name": "opID",
          "type": "uint256"
        }
      ],
      "payable": false,
      "stateMutability": "nonpayable",
      "type": "function"
    },
    {
      "constant": false,
      "inputs": [
        {
          "name": "_issuer",
          "type": "address"
        },
        {
          "name": "delegate",
          "type": "address"
        },
        {
          "name": "validity",
          "type": "uint256"
        },
        {
          "name": "_opId",
          "type": "uint256"
        }
      ],
      "name": "addDelegate",
      "outputs": [
        {
          "name": "opID",
          "type": "uint256"
        }
      ],
      "payable": false,
      "stateMutability": "nonpayable",
      "type": "function"
    },
    {
      "constant": false,
      "inputs": [
        {
          "name": "_issuer",
          "type": "address"
        },
        {
          "name": "delegate",
          "type": "address"
        },
        {
          "name": "_opId",
          "type": "uint256"
        }
      ],
      "name": "revokeDelegate",
      "outputs": [
        {
          "name": "opID",
          "type": "uint256"
        }
      ],
      "payable": false,
      "stateMutability": "nonpayable",
      "type": "function"
    }
  ],
  "bytecode": "0x608060405234801561001057600080fd5b506040516020806110c98339810180604052602081101561003057600080fd5b810190808051906020019092919050505060016003819055508060048190555050611069806100606000396000f3fe608060405234801561001057600080fd5b506004361061004c5760003560e01c80635448608614610051578063638fa8aa146100d3578063843c753814610151578063f350ad6b146101d4575b600080fd5b6100bd6004803603606081101561006757600080fd5b81019080803573ffffffffffffffffffffffffffffffffffffffff169060200190929190803573ffffffffffffffffffffffffffffffffffffffff16906020019092919080359060200190929190505050610260565b6040518082815260200191505060405180910390f35b61011f600480360360408110156100e957600080fd5b81019080803573ffffffffffffffffffffffffffffffffffffffff1690602001909291908035906020019092919050505061056d565b6040518084600281111561012f57fe5b60ff168152602001838152602001828152602001935050505060405180910390f35b6101be600480360360a081101561016757600080fd5b81019080803573ffffffffffffffffffffffffffffffffffffffff16906020019092919080359060200190929190803560ff16906020019092919080359060200190929190803590602001909291905050506105b1565b6040518082815260200191505060405180910390f35b61024a600480360360808110156101ea57600080fd5b81019080803573ffffffffffffffffffffffffffffffffffffffff169060200190929190803573ffffffffffffffffffffffffffffffffffffffff16906020019092919080359060200190929190803590602001909291905050506108f9565b6040518082815260200191505060405180910390f35b6000838073ffffffffffffffffffffffffffffffffffffffff163373ffffffffffffffffffffffffffffffffffffffff16148061031a5750426000808373ffffffffffffffffffffffffffffffffffffffff1673ffffffffffffffffffffffffffffffffffffffff16815260200190815260200160002060000160003373ffffffffffffffffffffffffffffffffffffffff1673ffffffffffffffffffffffffffffffffffffffff16815260200190815260200160002054115b806103a3575060016000808373ffffffffffffffffffffffffffffffffffffffff1673ffffffffffffffffffffffffffffffffffffffff16815260200190815260200160002060000160003373ffffffffffffffffffffffffffffffffffffffff1673ffffffffffffffffffffffffffffffffffffffff16815260200190815260200160002054145b6103ac57600080fd5b6103c083866000806000801b896000610c9b565b91506103cb82610f96565b156105655760008060006002600086815260200190815260200160002060000160009054906101000a900473ffffffffffffffffffffffffffffffffffffffff1673ffffffffffffffffffffffffffffffffffffffff1673ffffffffffffffffffffffffffffffffffffffff16815260200190815260200160002060000160006002600086815260200190815260200160002060040160009054906101000a900473ffffffffffffffffffffffffffffffffffffffff1673ffffffffffffffffffffffffffffffffffffffff1673ffffffffffffffffffffffffffffffffffffffff168152602001908152602001600020819055506000806002600085815260200190815260200160002060000160009054906101000a900473ffffffffffffffffffffffffffffffffffffffff1673ffffffffffffffffffffffffffffffffffffffff1673ffffffffffffffffffffffffffffffffffffffff1681526020019081526020016000206001016000815480929190600190039190505550600060026000848152602001908152602001600020600701819055505b509392505050565b6001602052816000526040600020602052806000526040600020600091509150508060000160009054906101000a900460ff16908060010154908060020154905083565b6000858073ffffffffffffffffffffffffffffffffffffffff163373ffffffffffffffffffffffffffffffffffffffff16148061066b5750426000808373ffffffffffffffffffffffffffffffffffffffff1673ffffffffffffffffffffffffffffffffffffffff16815260200190815260200160002060000160003373ffffffffffffffffffffffffffffffffffffffff1673ffffffffffffffffffffffffffffffffffffffff16815260200190815260200160002054115b806106f4575060016000808373ffffffffffffffffffffffffffffffffffffffff1673ffffffffffffffffffffffffffffffffffffffff16815260200190815260200160002060000160003373ffffffffffffffffffffffffffffffffffffffff1673ffffffffffffffffffffffffffffffffffffffff16815260200190815260200160002054145b6106fd57600080fd5b61070d8388888888600080610c9b565b915061071882610f96565b156108ef5760006002600084815260200190815260200160002060000160009054906101000a900473ffffffffffffffffffffffffffffffffffffffff1690506000600260008581526020019081526020016000206001015490506002600085815260200190815260200160002060020160009054906101000a900460ff16600160008473ffffffffffffffffffffffffffffffffffffffff1673ffffffffffffffffffffffffffffffffffffffff168152602001908152602001600020600083815260200190815260200160002060000160006101000a81548160ff0219169083600281111561080557fe5b02179055506002600085815260200190815260200160002060030154600160008473ffffffffffffffffffffffffffffffffffffffff1673ffffffffffffffffffffffffffffffffffffffff16815260200190815260200160002060008381526020019081526020016000206001018190555042600160008473ffffffffffffffffffffffffffffffffffffffff1673ffffffffffffffffffffffffffffffffffffffff1681526020019081526020016000206000838152602001908152602001600020600201819055506000600260008681526020019081526020016000206007018190555050505b5095945050505050565b6000848073ffffffffffffffffffffffffffffffffffffffff163373ffffffffffffffffffffffffffffffffffffffff1614806109b35750426000808373ffffffffffffffffffffffffffffffffffffffff1673ffffffffffffffffffffffffffffffffffffffff16815260200190815260200160002060000160003373ffffffffffffffffffffffffffffffffffffffff1673ffffffffffffffffffffffffffffffffffffffff16815260200190815260200160002054115b80610a3c575060016000808373ffffffffffffffffffffffffffffffffffffffff1673ffffffffffffffffffffffffffffffffffffffff16815260200190815260200160002060000160003373ffffffffffffffffffffffffffffffffffffffff1673ffffffffffffffffffffffffffffffffffffffff16815260200190815260200160002054145b610a4557600080fd5b610a5883876000806000801b8a8a610c9b565b9150610a6382610f96565b15610c925760006002600084815260200190815260200160002060000160009054906101000a900473ffffffffffffffffffffffffffffffffffffffff16905060006002600085815260200190815260200160002060040160009054906101000a900473ffffffffffffffffffffffffffffffffffffffff169050600060026000868152602001908152602001600020600601541415610b865760016000808473ffffffffffffffffffffffffffffffffffffffff1673ffffffffffffffffffffffffffffffffffffffff16815260200190815260200160002060000160008373ffffffffffffffffffffffffffffffffffffffff1673ffffffffffffffffffffffffffffffffffffffff16815260200190815260200160002081905550610c22565b600260008581526020019081526020016000206001015442016000808473ffffffffffffffffffffffffffffffffffffffff1673ffffffffffffffffffffffffffffffffffffffff16815260200190815260200160002060000160008373ffffffffffffffffffffffffffffffffffffffff1673ffffffffffffffffffffffffffffffffffffffff168152602001908152602001600020819055505b6000808373ffffffffffffffffffffffffffffffffffffffff1673ffffffffffffffffffffffffffffffffffffffff168152602001908152602001600020600101600081548092919060010191905055506000600260008681526020019081526020016000206007018190555050505b50949350505050565b600080881415610e8b5760035490508660026000600354815260200190815260200160002060000160006101000a81548173ffffffffffffffffffffffffffffffffffffffff021916908373ffffffffffffffffffffffffffffffffffffffff16021790555085600260006003548152602001908152602001600020600101819055508460026000600354815260200190815260200160002060020160006101000a81548160ff02191690836002811115610d5257fe5b021790555083600260006003548152602001908152602001600020600301819055508260026000600354815260200190815260200160002060040160006101000a81548173ffffffffffffffffffffffffffffffffffffffff021916908373ffffffffffffffffffffffffffffffffffffffff1602179055508160026000600354815260200190815260200160002060060181905550600160026000600354815260200190815260200160002060050160003373ffffffffffffffffffffffffffffffffffffffff1673ffffffffffffffffffffffffffffffffffffffff16815260200190815260200160002060006101000a81548160ff021916908315150217905550600160026000600354815260200190815260200160002060070181905550600360008154809291906001019190505550610f8b565b8790506002600089815260200190815260200160002060050160003373ffffffffffffffffffffffffffffffffffffffff1673ffffffffffffffffffffffffffffffffffffffff16815260200190815260200160002060009054906101000a900460ff1615610ef957600080fd5b6001600260008a8152602001908152602001600020600701600082825401925050819055506001600260008a815260200190815260200160002060050160003373ffffffffffffffffffffffffffffffffffffffff1673ffffffffffffffffffffffffffffffffffffffff16815260200190815260200160002060006101000a81548160ff0219169083151502179055505b979650505050505050565b600060016000806002600086815260200190815260200160002060000160009054906101000a900473ffffffffffffffffffffffffffffffffffffffff1673ffffffffffffffffffffffffffffffffffffffff1673ffffffffffffffffffffffffffffffffffffffff1681526020019081526020016000206001015410806110365750600454600260008481526020019081526020016000206007015410155b905091905056fea165627a7a7230582023e872de58ce5a620a69fc9fc2c9380471bf1cd881adad7813188dff4cd15dc80029",
  "source": "pragma solidity ^0.5.0;\n\ncontract StatusRegistry {\n\n  mapping (address => Delegate) delegates;\n  mapping (address => mapping (uint256 => State)) public credentialList;\n  mapping (uint256 => Operation) operations;\n  uint256 opCount;\n  uint requiredCount;\n\n  struct State{\n      States credentialStatus;\n      bytes32 statusReason;\n      uint256 time;\n  }\n\n  struct Delegate{\n      mapping (address => uint256) delegateList;\n      uint256 delegateCount;\n  }\n\n  struct Operation{\n      address issuer;\n      uint256 credentialId;\n      States credentialStatus;\n      bytes32 statusReason;\n      address delegate;\n      mapping(address => bool) confirmations;\n      uint256 validity;\n      uint256 count;\n  }\n\n  enum States {VALID, REVOKED, SUSPENDED}\n\n  modifier onlyAuthorized(address issuer) {\n    require (msg.sender == issuer || delegates[issuer].delegateList[msg.sender] > now || delegates[issuer].delegateList[msg.sender] == 1);\n    _;\n  }\n\n  constructor(uint _requiredCount) public {\n      opCount = 1;\n      requiredCount = _requiredCount;\n  }\n\n  //event CredentialStatusChanged(address indexed issuer, uint indexed credentialId, byte credentialStatus, byte statusReason, uint indexed timestamp);\n\n  /// set the status\n  function setCredentialStatus(address _issuer, uint256 _credentialId, States _credentialStatus, bytes32 _statusReason, uint256 _opId) onlyAuthorized(_issuer) public returns(uint256 opID){\n    //emit CredentialStatusChanged(issuer, credentialId, credentialStatus, statusReason, now);\n    opID = updateOperation(_opId, _issuer, _credentialId, _credentialStatus, _statusReason, address(0), 0);\n    if(hasToExecute(opID)){\n        address iss = operations[opID].issuer;\n        uint256 credId = operations[opID].credentialId;\n        credentialList[iss][credId].credentialStatus = operations[opID].credentialStatus;\n        credentialList[iss][credId].statusReason = operations[opID].statusReason;\n        credentialList[iss][credId].time = now;\n        operations[opID].count = 0;\n    }\n  }\n\n  function addDelegate(address _issuer, address delegate, uint256 validity, uint256 _opId) onlyAuthorized(_issuer) public returns(uint256 opID){\n    opID = updateOperation(_opId, _issuer, 0, States.VALID, 0x00, delegate, validity);\n    if(hasToExecute(opID)){\n        address iss = operations[opID].issuer;\n        address del = operations[opID].delegate;\n        if(operations[opID].validity == 0){\n            delegates[iss].delegateList[del] = 1 ;    //permanent delegate without expiration\n        } else {\n            delegates[iss].delegateList[del] = now + operations[opID].credentialId;\n        }\n        delegates[iss].delegateCount ++;\n        operations[opID].count = 0;\n    }\n  }\n\n  function revokeDelegate(address _issuer, address delegate, uint256 _opId) onlyAuthorized(_issuer) public returns(uint256 opID){\n    opID = updateOperation(_opId, _issuer, 0, States.VALID, 0x00, delegate, 0);\n    if(hasToExecute(opID)){\n        delegates[operations[opID].issuer].delegateList[operations[opID].delegate] = 0;\n        delegates[operations[opID].issuer].delegateCount --;\n        operations[opID].count = 0;\n    }\n  }\n\n  function updateOperation(uint256 _opId, address _issuer, uint256 _credentialId, States _credentialStatus, bytes32 _statusReason, address _delegate, uint256 validity) internal returns(uint256 opID){\n    if(_opId == 0){\n        opID = opCount;\n        operations[opCount].issuer = _issuer;\n        operations[opCount].credentialId = _credentialId;\n        operations[opCount].credentialStatus = _credentialStatus;\n        operations[opCount].statusReason = _statusReason;\n        operations[opCount].delegate = _delegate;\n        operations[opCount].validity = validity;\n        operations[opCount].confirmations[msg.sender] = true;\n        operations[opCount].count = 1;\n        opCount ++;\n    } else {\n        opID = _opId;\n        require(!operations[_opId].confirmations[msg.sender]);\n        operations[_opId].count += 1;\n        operations[_opId].confirmations[msg.sender] = true;\n    }\n  }\n\n  function hasToExecute(uint256 _opId) internal view returns(bool){\n    return delegates[operations[_opId].issuer].delegateCount < 1 || operations[_opId].count >= requiredCount;\n  }\n}\n",
  "sourcePath": "/mnt/c/dev/ssi-poc/ssi-smart-contracts/contracts/ZOld_StatusRegistry.sol",
  "compiler": {
    "name": "solc",
    "version": "0.5.8+commit.23d335f2.Emscripten.clang"
  },
  "schemaVersion": "3.0.11",
  "updatedAt": "2019-07-16T09:54:29.967Z",
  "devdoc": {
    "methods": {}
  },
  "userdoc": {
    "methods": {
      "setCredentialStatus(address,uint256,uint8,bytes32,uint256)": {
        "notice": "set the status"
      }
    }
  }
}